:020000040800F2
:1000000000040120DD010008E5010008E701000807
:10001000E9010008EB010008ED0100080000000004
:10002000000000000000000000000000EF010008D8
:10003000F101000800000000F3010008F5010008CC
:10004000F7010008F7010008F7010008F7010008B0
:10005000F7010008F7010008F7010008F7010008A0
:10006000F7010008F7010008F7010008F701000890
:10007000F7010008F7010008F7010008F701000880
:10008000F7010008F7010008F7010008F701000870
:10009000F7010008F7010008F7010008F701000860
:1000A000F7010008F7010008F7010008F701000850
:1000B000F7010008F7010008F7010008F701000840
:1000C000F7010008F7010008F7010008F701000830
:1000D000F7010008F7010008F7010008F701000820
:1000E000F7010008F7010008F7010008F701000810
:1000F000F7010008F7010008F7010008F701000800
:10010000F7010008F7010008F7010008F7010008EF
:10011000F7010008F7010008F7010008F7010008DF
:10012000F7010008F7010008F7010008F7010008CF
:10013000F7010008F7010008F7010008F7010008BF
:10014000F7010008F7010008F7010008F7010008AF
:10015000F7010008F7010008F7010008F70100089F
:10016000F7010008F7010008F7010008F70100088F
:10017000F7010008F7010008F7010008000000007F
:10018000F7010008F7010008F7010008F70100086F
:10019000F7010008F7010008F7010008F70100085F
:1001A000F7010008F7010008F7010008F70100084F
:1001B000F7010008F7010008F7010008F70100083F
:1001C000F7010008F7010008DFF80CD000F018F87C
:1001D00000480047A90200080004012006488047A3
:1001E00006480047FEE7FEE7FEE7FEE7FEE7FEE71C
:1001F000FEE7FEE7FEE7FEE725020008C90100086A
:10020000064C074D06E0E06840F0010394E8070063
:1002100098471034AC42F6D3FFF7DAFF68030008C2
:10022000780300081448006840F470001249086020
:100230001248006840F001001049086000200F4992
:10024000083108600D4800680D4908400B490860F6
:100250000C48091D0860081F006820F48020091F51
:100260000860002005490C3108604FF00060024929
:10027000803908607047000088ED00E000380240D7
:10028000FFFFF6FE1030002402E008C8121F08C16C
:10029000002AFAD170477047002001E001C1121F07
:1002A000002AFBD170470000FF202849086048154C
:1002B000264914310860C020254908602548264990
:1002C00008600020091D086022480C38091D0860DC
:1002D000091D086000202149086001202049C1F85B
:1002E00008016FF078401D49083108601D48091D5C
:1002F0000860032019493031086025E01748001DC7
:10030000006840F080401649C1F8080113484830A1
:100310000068B0F5006F04D14FF480400E491431ED
:1003200008600E484830006840F6FF71884203D1EB
:10033000012009491431086008484830006818B99C
:100340008020054914310860D8E7000030380240A9
:10035000000002400D400010000402400421014052
:1003600000200140777777377803000800000120EC
:080370000004000098020008DF
:04000005080001DD11
:00000001FF
